:020000040000FA
:100C0000AEEF09F0D9CFE5FFE1CFD9FF00C0E5FF96
:100C100001C0E5FF02C0E5FF03C0E5FF04C0E5FF3A
:100C2000020EDBCF00F0030EDBCF01F0280E002414
:100C3000026E036A140E0322046A000E042202C02C
:100C4000F6FF03C0F7FF04C0F8FF0900F5CF02F07C
:100C5000050E025CD8B0F8D0FA6AFB6A0234FA36A4
:100C6000E834FA36FC0B760FE56E0C0EFA22000E15
:100C7000FB22E450F96E45EF06F072EF06F09FEFAD
:100C800006F0CCEF06F0F9EF06F0015015E00A0E81
:100C90000024026E036A140E0322046A000E04226A
:100CA00002C0F6FF03C0F7FF04C0F8FF0900F5CF4C
:100CB00002F002509212C8D00A0E0024026E036A9B
:100CC000140E0322046A000E042202C0F6FF03C0C1
:100CD000F7FF04C0F8FF0900F5CF02F00250FF084B
:100CE0009216B2D0015015E00A0E0024026E036A7B
:100CF000140E0322046A000E042202C0F6FF03C091
:100D0000F7FF04C0F8FF0900F5CF02F0025093127C
:100D10009BD00A0E0024026E036A140E0322046A9A
:100D2000000E042202C0F6FF03C0F7FF04C0F8FF64
:100D30000900F5CF02F00250FF08931685D001504C
:100D400015E00A0E0024026E036A140E0322046AE0
:100D5000000E042202C0F6FF03C0F7FF04C0F8FF34
:100D60000900F5CF02F0025094126ED00A0E002452
:100D7000026E036A140E0322046A000E042202C0EB
:100D8000F6FF03C0F7FF04C0F8FF0900F5CF02F03B
:100D90000250FF08941658D0015015E00A0E0024A6
:100DA000026E036A140E0322046A000E042202C0BB
:100DB000F6FF03C0F7FF04C0F8FF0900F5CF02F00B
:100DC0000250951241D00A0E0024026E036A140EDE
:100DD0000322046A000E042202C0F6FF03C0F7FFDC
:100DE00004C0F8FF0900F5CF02F00250FF08951685
:100DF0002BD0015015E00A0E0024016E026A140E79
:100E00000222036A000E032201C0F6FF02C0F7FFB0
:100E100003C0F8FF0900F5CF01F00150961214D07D
:100E2000016A026A0A0E0026140E0122000E022236
:100E300000C0F6FF01C0F7FF02C0F8FF0900F5CFC0
:100E400000F00050FF089616E4CF04F0E4CF03F062
:100E5000E4CF02F0E4CF01F0E4CF00F0E4CFD9FF1B
:100E60001200D9CFE5FFE1CFD9FF00C0E5FF01C0F7
:100E7000E5FF02C0E5FF03C0E5FF04C0E5FF020E89
:100E8000DBCF00F0030EDBCF01F0280E0024026E52
:100E9000036A140E0322046A000E042202C0F6FF45
:100EA00003C0F7FF04C0F8FF0900F5CF02F0050EFC
:100EB000025CD8B0F8D0FA6AFB6A0234FA36E83439
:100EC000FA36FC0BD40FE56E0E0EFA22000EFB2252
:100ED000E450F96E74EF07F0A1EF07F0CEEF07F0E2
:100EE000FBEF07F028EF08F0015015E00A0E002490
:100EF000026E036A140E0322046A000E042202C06A
:100F0000F6FF03C0F7FF04C0F8FF0900F5CF02F0B9
:100F100002508912C8D00A0E0024026E036A140E11
:100F20000322046A000E042202C0F6FF03C0F7FF8A
:100F300004C0F8FF0900F5CF02F00250FF0889163F
:100F4000B2D0015015E00A0E0024026E036A140E9E
:100F50000322046A000E042202C0F6FF03C0F7FF5A
:100F600004C0F8FF0900F5CF02F002508A129BD0AE
:100F70000A0E0024026E036A140E0322046A000E95
:100F8000042202C0F6FF03C0F7FF04C0F8FF090007
:100F9000F5CF02F00250FF088A1685D0015015E007
:100FA0000A0E0024026E036A140E0322046A000E65
:100FB000042202C0F6FF03C0F7FF04C0F8FF0900D7
:100FC000F5CF02F002508B126ED00A0E0024026E92
:100FD000036A140E0322046A000E042202C0F6FF04
:100FE00003C0F7FF04C0F8FF0900F5CF02F002507C
:100FF000FF088B1658D0015015E00A0E0024026E2F
:10100000036A140E0322046A000E042202C0F6FFD3
:1010100003C0F7FF04C0F8FF0900F5CF02F002504B
:101020008C1241D00A0E0024026E036A140E0322B1
:10103000046A000E042202C0F6FF03C0F7FF04C0DA
:10104000F8FF0900F5CF02F00250FF088C162BD0F4
:10105000015015E00A0E0024016E026A140E0222ED
:10106000036A000E032201C0F6FF02C0F7FF03C0AF
:10107000F8FF0900F5CF01F001508D1214D0016A7C
:10108000026A0A0E0026140E0122000E022200C07F
:10109000F6FF01C0F7FF02C0F8FF0900F5CF00F02E
:1010A0000050FF088D16E4CF04F0E4CF03F0E4CF46
:1010B00002F0E4CF01F0E4CF00F0E4CFD9FF12005A
:1010C000D9CFE5FFE1CFD9FF00C0E5FF01C0E5FFC3
:1010D00002C0E5FF03C0E5FF020EDBCF00F0280EE3
:1010E0000024016E026A140E0222036A000E03221B
:1010F00001C0F6FF02C0F7FF03C0F8FF0900F5CFFB
:1011000001F0050E015CD8B09AD0FA6AFB6A01348E
:10111000FA36E834FA36FC0B280FE56E110EFA2287
:10112000000EFB22E450F96E9EEF08F0B8EF08F0D5
:10113000D2EF08F0ECEF08F006EF09F00A0E0024F9
:10114000016E026A140E0222036A000E032201C01D
:10115000F6FF02C0F7FF03C0F8FF0900F5CF01F06A
:1011600080500116015002E0010E6AD0E86A68D092
:101170000A0E0024016E026A140E0222036A000E97
:10118000032201C0F6FF02C0F7FF03C0F8FF090009
:10119000F5CF01F081500116015002E0010E50D050
:1011A000E86A4ED00A0E0024016E026A140E022272
:1011B000036A000E032201C0F6FF02C0F7FF03C05E
:1011C000F8FF0900F5CF01F082500116015002E04E
:1011D000010E36D0E86A34D00A0E0024016E026A8D
:1011E000140E0222036A000E032201C0F6FF02C0A1
:1011F000F7FF03C0F8FF0900F5CF01F08350011697
:10120000015002E0010E1CD0E86A1AD0016A026A9D
:101210000A0E0026140E0122000E022200C0F6FF64
:1012200001C0F7FF02C0F8FF0900F5CF00F08450BD
:101230000016005002E0010E03D0E86A01D0E86A0F
:10124000E4CF03F0E4CF02F0E4CF01F0E4CF00F00C
:10125000E4CFD9FF1200B6EC0AF033EC0BF0040136
:101260000451E56E0351E56E42EC0AF0E652E65297
:10127000B6EC0AF0B6EC0BF004010451E56E035134
:10128000E56E42EC0AF0E652E652B6EC0AF056EC95
:101290000BF004010451E56E0351E56E42EC0AF0D7
:1012A000E652E652B6EC0AF04BEC0BF004010451A6
:1012B000E56E0351E56E42EC0AF0E652E652B6ECFA
:1012C0000AF061EC0BF004010451E56E0351E56E88
:1012D00042EC0AF0E652E652B6EC0AF040EC0BF0B3
:1012E00004010451E56E0351E56E42EC0AF0E6524A
:1012F000E652B6EC0AF026EC0BF004010451E56E60
:101300000351E56E42EC0AF0E652E652B6EC0AF002
:10131000A8EC0BF004010451E56E0351E56E42ECBC
:101320000AF0E652E652B6EC0AF00AEC0BF00401C1
:101330000451E56E0351E56E42EC0AF0E652E652C6
:10134000B6EC0AF019EC0BF004010451E56E035100
:10135000E56E42EC0AF0E652E652120017EEFFF09C
:1013600027EEFFF0F86AA68EA69CBF0EE96E0E0E61
:10137000EA6E0068ED6A0050FDE15E0EF66E170E33
:10138000F76E000EF86E0900F5CF05F00900F5CFF5
:1013900006F034D00900F5CF00F00900F5CF01F0D8
:1013A0000900F5CF02F009000900F5CFE9FF0900B7
:1013B000F5CFEAFF090009000900F5CF03F00900A5
:1013C000F5CF04F009000900F6CF07F0F7CF08F0D9
:1013D000F8CF09F000C0F6FF01C0F7FF02C0F8FF28
:1013E00003D00900F5CFEEFF0306FBE20406F9E2A5
:1013F00007C0F6FF08C0F7FF09C0F8FF0506CAE2FC
:101400000606C8E2E6EC0AF0FFD701020408102045
:10141000408040800102040102040820010204010E
:1014200002040810204080100101010101010101A6
:10143000020202020200000000000404040303038D
:10144000030303030300E806E56E630E36EC0AF0BF
:10145000E4500BE000D0E56E630E36EC0AF000D0ED
:1014600000D00000E450E82EF6D71200E806000095
:10147000E85007E000D000D000D000D00000E82EF7
:10148000FAD71200D9CFE5FFE1CFD9FF00C0E5FFC1
:1014900001C0E5FF02C0E5FF03C0E5FF020EDBCFA0
:1014A00000F0030EDBCF01F0026A036A0150035C17
:1014B00002E10050025C06E20C0E23EC0AF0024A44
:1014C000032AF4D7E4CF03F0E4CF02F0E4CF01F035
:1014D000E4CF00F0E4CFD9FF1200D9CFE5FFE1CF90
:1014E000D9FF00C0E5FF01C0E5FF02C0E5FF03C072
:1014F000E5FF020EDBCF00F0030EDBCF01F0026A46
:10150000036A0150035C02E10050025C03E2024AFC
:10151000032AF7D7E4CF03F0E4CF02F0E4CF01F0E1
:10152000E4CF00F0E4CFD9FF1200D9CFE5FFE1CF3F
:10153000D9FF00C0E5FF01C0E5FF020EDBCF00F0E0
:101540000050E56E60EC08F0016EE652017001504B
:10155000E56E0050E56E31EC07F0E652E652E4CF5E
:1015600001F0E4CF00F0E4CFD9FF12000401016BD9
:10157000026B04010151E56AE56E31EC07F0E652B9
:10158000E6520401013F01D0022B04010251800FF9
:10159000800F02E1070E015DECE312000401016B14
:1015A000026B04010151E56AE56E02EC06F0E652B9
:1015B000E6520401013F01D0022B04010251800FC9
:1015C000800F02E1070E015DECE31200D350030B24
:1015D000800F7D0F02E3D3A4FED7D08EF29EF29C43
:1015E000FAEC0AF0BBEC0BF0CEEC0AF02BEC09F0B5
:1015F000FDD71200896A8A6A400E8B6E8C6A8D6AEA
:10160000926A936A949094929494949C949E956A0E
:10161000966A120097EC0BF0A0EC0BF08EEC0BF03E
:1016200085EC0BF07CEC0BF073EC0BF06AEC0BF040
:10163000120097EC0BF0A0EC0BF08EEC0BF085ECAD
:101640000BF073EC0BF06AEC0BF0120097EC0BF064
:101650008EEC0BF085EC0BF07CEC0BF073EC0BF0EC
:101660006AEC0BF0120097EC0BF0A0EC0BF08EEC98
:101670000BF085EC0BF07CEC0BF073EC0BF0120034
:1016800097EC0BF08EEC0BF085EC0BF073EC0BF0A1
:101690006AEC0BF0120097EC0BF0A0EC0BF08EEC68
:1016A0000BF085EC0BF06AEC0BF0120097EC0BF0F2
:1016B000A0EC0BF085EC0BF07CEC0BF06AEC0BF083
:1016C0001200A0EC0BF08EEC0BF073EC0BF06AEC5C
:1016D0000BF01200010EE56E060EE56E31EC07F020
:1016E000E652E6521200010EE56E050EE56E31EC93
:1016F00007F0E652E6521200010EE56E040EE56EAA
:1017000031EC07F0E652E6521200010EE56E030ED0
:10171000E56E31EC07F0E652E6521200010EE56E7E
:10172000020EE56E31EC07F0E652E6521200010EB1
:10173000E56E000EE56A31EC07F0E652E652120063
:10174000010EE56EE56E31EC07F0E652E65212004E
:1017500097EC0BF0A0EC0BF08EEC0BF012000100FC
:10176000801700000004000005000000A0EC0BF052
:101770008EEC0BF012000F0EC16E070EB46E12004D
:06178000000000E8030078
:00000001FF
